{
  "_format": "hh-sol-artifact-1",
  "contractName": "Tracking",
  "sourceName": "contracts/Tracking.sol",
  "abi": [
    {
      "inputs": [],
      "stateMutability": "nonpayable",
      "type": "constructor"
    },
    {
      "anonymous": false,
      "inputs": [
        {
          "indexed": true,
          "internalType": "address",
          "name": "sender",
          "type": "address"
        },
        {
          "indexed": true,
          "internalType": "address",
          "name": "receiver",
          "type": "address"
        },
        {
          "indexed": false,
          "internalType": "uint256",
          "name": "pickupTime",
          "type": "uint256"
        },
        {
          "indexed": false,
          "internalType": "uint256",
          "name": "distance",
          "type": "uint256"
        },
        {
          "indexed": false,
          "internalType": "uint256",
          "name": "price",
          "type": "uint256"
        }
      ],
      "name": "ShipmentCreated",
      "type": "event"
    },
    {
      "anonymous": false,
      "inputs": [
        {
          "indexed": true,
          "internalType": "address",
          "name": "sender",
          "type": "address"
        },
        {
          "indexed": true,
          "internalType": "address",
          "name": "receiver",
          "type": "address"
        },
        {
          "indexed": false,
          "internalType": "uint256",
          "name": "deliveryTime",
          "type": "uint256"
        }
      ],
      "name": "ShipmentDelivered",
      "type": "event"
    },
    {
      "anonymous": false,
      "inputs": [
        {
          "indexed": true,
          "internalType": "address",
          "name": "sender",
          "type": "address"
        },
        {
          "indexed": true,
          "internalType": "address",
          "name": "receiver",
          "type": "address"
        },
        {
          "indexed": false,
          "internalType": "uint256",
          "name": "pickupTime",
          "type": "uint256"
        }
      ],
      "name": "ShipmentInTransit",
      "type": "event"
    },
    {
      "anonymous": false,
      "inputs": [
        {
          "indexed": true,
          "internalType": "address",
          "name": "sender",
          "type": "address"
        },
        {
          "indexed": true,
          "internalType": "address",
          "name": "receiver",
          "type": "address"
        },
        {
          "indexed": false,
          "internalType": "uint256",
          "name": "amount",
          "type": "uint256"
        }
      ],
      "name": "ShipmentPaid",
      "type": "event"
    },
    {
      "inputs": [
        {
          "internalType": "address",
          "name": "sender",
          "type": "address"
        },
        {
          "internalType": "address",
          "name": "receiver",
          "type": "address"
        },
        {
          "internalType": "uint256",
          "name": "index",
          "type": "uint256"
        }
      ],
      "name": "completeShipment",
      "outputs": [],
      "stateMutability": "nonpayable",
      "type": "function"
    },
    {
      "inputs": [
        {
          "internalType": "address",
          "name": "r",
          "type": "address"
        },
        {
          "internalType": "uint256",
          "name": "pickupt",
          "type": "uint256"
        },
        {
          "internalType": "uint256",
          "name": "dist",
          "type": "uint256"
        },
        {
          "internalType": "uint256",
          "name": "amt",
          "type": "uint256"
        }
      ],
      "name": "createShipment",
      "outputs": [],
      "stateMutability": "payable",
      "type": "function"
    },
    {
      "inputs": [],
      "name": "getAlltransactions",
      "outputs": [
        {
          "components": [
            {
              "internalType": "address",
              "name": "sender",
              "type": "address"
            },
            {
              "internalType": "address",
              "name": "receiver",
              "type": "address"
            },
            {
              "internalType": "uint256",
              "name": "pickupTime",
              "type": "uint256"
            },
            {
              "internalType": "uint256",
              "name": "deliveryTime",
              "type": "uint256"
            },
            {
              "internalType": "uint256",
              "name": "distance",
              "type": "uint256"
            },
            {
              "internalType": "uint256",
              "name": "price",
              "type": "uint256"
            },
            {
              "internalType": "enum Tracking.Status",
              "name": "stat",
              "type": "uint8"
            },
            {
              "internalType": "bool",
              "name": "isPaid",
              "type": "bool"
            }
          ],
          "internalType": "struct Tracking.TypeShipment[]",
          "name": "",
          "type": "tuple[]"
        }
      ],
      "stateMutability": "view",
      "type": "function"
    },
    {
      "inputs": [
        {
          "internalType": "address",
          "name": "sender",
          "type": "address"
        },
        {
          "internalType": "uint256",
          "name": "index",
          "type": "uint256"
        }
      ],
      "name": "getShipment",
      "outputs": [
        {
          "components": [
            {
              "internalType": "address",
              "name": "sender",
              "type": "address"
            },
            {
              "internalType": "address",
              "name": "receiver",
              "type": "address"
            },
            {
              "internalType": "uint256",
              "name": "pickupTime",
              "type": "uint256"
            },
            {
              "internalType": "uint256",
              "name": "deliveryTime",
              "type": "uint256"
            },
            {
              "internalType": "uint256",
              "name": "distance",
              "type": "uint256"
            },
            {
              "internalType": "uint256",
              "name": "price",
              "type": "uint256"
            },
            {
              "internalType": "enum Tracking.Status",
              "name": "stat",
              "type": "uint8"
            },
            {
              "internalType": "bool",
              "name": "isPaid",
              "type": "bool"
            }
          ],
          "internalType": "struct Tracking.Shipment",
          "name": "",
          "type": "tuple"
        }
      ],
      "stateMutability": "view",
      "type": "function"
    },
    {
      "inputs": [
        {
          "internalType": "address",
          "name": "sender",
          "type": "address"
        }
      ],
      "name": "getShipmentCount",
      "outputs": [
        {
          "internalType": "uint256",
          "name": "",
          "type": "uint256"
        }
      ],
      "stateMutability": "view",
      "type": "function"
    },
    {
      "inputs": [],
      "name": "shipmentCount",
      "outputs": [
        {
          "internalType": "uint256",
          "name": "",
          "type": "uint256"
        }
      ],
      "stateMutability": "view",
      "type": "function"
    },
    {
      "inputs": [
        {
          "internalType": "address",
          "name": "",
          "type": "address"
        },
        {
          "internalType": "uint256",
          "name": "",
          "type": "uint256"
        }
      ],
      "name": "shipments",
      "outputs": [
        {
          "internalType": "address",
          "name": "sender",
          "type": "address"
        },
        {
          "internalType": "address",
          "name": "receiver",
          "type": "address"
        },
        {
          "internalType": "uint256",
          "name": "pickupTime",
          "type": "uint256"
        },
        {
          "internalType": "uint256",
          "name": "deliveryTime",
          "type": "uint256"
        },
        {
          "internalType": "uint256",
          "name": "distance",
          "type": "uint256"
        },
        {
          "internalType": "uint256",
          "name": "price",
          "type": "uint256"
        },
        {
          "internalType": "enum Tracking.Status",
          "name": "stat",
          "type": "uint8"
        },
        {
          "internalType": "bool",
          "name": "isPaid",
          "type": "bool"
        }
      ],
      "stateMutability": "view",
      "type": "function"
    },
    {
      "inputs": [
        {
          "internalType": "address",
          "name": "sender",
          "type": "address"
        },
        {
          "internalType": "address",
          "name": "receiver",
          "type": "address"
        },
        {
          "internalType": "uint256",
          "name": "index",
          "type": "uint256"
        }
      ],
      "name": "startShipment",
      "outputs": [],
      "stateMutability": "nonpayable",
      "type": "function"
    },
    {
      "inputs": [
        {
          "internalType": "uint256",
          "name": "",
          "type": "uint256"
        }
      ],
      "name": "typeshipments",
      "outputs": [
        {
          "internalType": "address",
          "name": "sender",
          "type": "address"
        },
        {
          "internalType": "address",
          "name": "receiver",
          "type": "address"
        },
        {
          "internalType": "uint256",
          "name": "pickupTime",
          "type": "uint256"
        },
        {
          "internalType": "uint256",
          "name": "deliveryTime",
          "type": "uint256"
        },
        {
          "internalType": "uint256",
          "name": "distance",
          "type": "uint256"
        },
        {
          "internalType": "uint256",
          "name": "price",
          "type": "uint256"
        },
        {
          "internalType": "enum Tracking.Status",
          "name": "stat",
          "type": "uint8"
        },
        {
          "internalType": "bool",
          "name": "isPaid",
          "type": "bool"
        }
      ],
      "stateMutability": "view",
      "type": "function"
    }
  ],
  "bytecode": "0x6080604052348015600f57600080fd5b506000600181905550611a87806100276000396000f3fe6080604052600436106100865760003560e01c80637ff5265d116100595780637ff5265d146101675780638365da5414610190578063aace20b7146101cd578063b7dfd93d146101f8578063cbc4b1811461023557610086565b8063102ab2161461008b578063179a878c146100b65780635667e02f146100df5780636b0f23e714610123575b600080fd5b34801561009757600080fd5b506100a0610251565b6040516100ad919061144d565b60405180910390f35b3480156100c257600080fd5b506100dd60048036038101906100d891906114cc565b6103db565b005b3480156100eb57600080fd5b506101066004803603810190610101919061151f565b61075d565b60405161011a98979695949392919061159b565b60405180910390f35b34801561012f57600080fd5b5061014a60048036038101906101459190611619565b61081c565b60405161015e98979695949392919061159b565b60405180910390f35b34801561017357600080fd5b5061018e600480360381019061018991906114cc565b6108ce565b005b34801561019c57600080fd5b506101b760048036038101906101b2919061151f565b610b2a565b6040516101c491906116e8565b60405180910390f35b3480156101d957600080fd5b506101e2610cce565b6040516101ef9190611704565b60405180910390f35b34801561020457600080fd5b5061021f600480360381019061021a919061171f565b610cd4565b60405161022c9190611704565b60405180910390f35b61024f600480360381019061024a919061174c565b610d1f565b005b60606002805480602002602001604051908101604052809291908181526020016000905b828210156103d25783829060005260206000209060070201604051806101000160405290816000820160009054906101000a900473ffffffffffffffffffffffffffffffffffffffff1673ffffffffffffffffffffffffffffffffffffffff1673ffffffffffffffffffffffffffffffffffffffff1681526020016001820160009054906101000a900473ffffffffffffffffffffffffffffffffffffffff1673ffffffffffffffffffffffffffffffffffffffff1673ffffffffffffffffffffffffffffffffffffffff168152602001600282015481526020016003820154815260200160048201548152602001600582015481526020016006820160009054906101000a900460ff16600281111561039257610391611295565b5b60028111156103a4576103a3611295565b5b81526020016006820160019054906101000a900460ff16151515158152505081526020019060010190610275565b50505050905090565b60008060008573ffffffffffffffffffffffffffffffffffffffff1673ffffffffffffffffffffffffffffffffffffffff168152602001908152602001600020828154811061042d5761042c6117b3565b5b90600052602060002090600702019050600060028381548110610453576104526117b3565b5b906000526020600020906007020190508160010160009054906101000a900473ffffffffffffffffffffffffffffffffffffffff1673ffffffffffffffffffffffffffffffffffffffff168473ffffffffffffffffffffffffffffffffffffffff16146104f5576040517f08c379a00000000000000000000000000000000000000000000000000000000081526004016104ec9061183f565b60405180910390fd5b6001600281111561050957610508611295565b5b8260060160009054906101000a900460ff16600281111561052d5761052c611295565b5b1461056d576040517f08c379a0000000000000000000000000000000000000000000000000000000008152600401610564906118ab565b60405180910390fd5b60028260060160006101000a81548160ff0219169083600281111561059557610594611295565b5b021790555060028160060160006101000a81548160ff021916908360028111156105c2576105c1611295565b5b02179055504282600301819055504281600301819055506000826005015490508260000160009054906101000a900473ffffffffffffffffffffffffffffffffffffffff1673ffffffffffffffffffffffffffffffffffffffff166108fc829081150290604051600060405180830381858888f1935050505015801561064c573d6000803e3d6000fd5b5060018360060160016101000a81548160ff02191690831515021790555060018260060160016101000a81548160ff0219169083151502179055508473ffffffffffffffffffffffffffffffffffffffff168673ffffffffffffffffffffffffffffffffffffffff167f3746ccceb54f44c9b0ee0120e596168d07ec9f6ca303cfdd9810d3b2e2686a2e85600301546040516106e89190611704565b60405180910390a38473ffffffffffffffffffffffffffffffffffffffff168673ffffffffffffffffffffffffffffffffffffffff167f2b6f2473aebafaf8d0889669490135928ec4454d2e29a103fd39693bbca6aef18360405161074d9190611704565b60405180910390a3505050505050565b6000602052816000526040600020818154811061077957600080fd5b9060005260206000209060070201600091509150508060000160009054906101000a900473ffffffffffffffffffffffffffffffffffffffff16908060010160009054906101000a900473ffffffffffffffffffffffffffffffffffffffff16908060020154908060030154908060040154908060050154908060060160009054906101000a900460ff16908060060160019054906101000a900460ff16905088565b6002818154811061082c57600080fd5b90600052602060002090600702016000915090508060000160009054906101000a900473ffffffffffffffffffffffffffffffffffffffff16908060010160009054906101000a900473ffffffffffffffffffffffffffffffffffffffff16908060020154908060030154908060040154908060050154908060060160009054906101000a900460ff16908060060160019054906101000a900460ff16905088565b60008060008573ffffffffffffffffffffffffffffffffffffffff1673ffffffffffffffffffffffffffffffffffffffff16815260200190815260200160002082815481106109205761091f6117b3565b5b90600052602060002090600702019050600060028381548110610946576109456117b3565b5b906000526020600020906007020190508160010160009054906101000a900473ffffffffffffffffffffffffffffffffffffffff1673ffffffffffffffffffffffffffffffffffffffff168473ffffffffffffffffffffffffffffffffffffffff16146109e8576040517f08c379a00000000000000000000000000000000000000000000000000000000081526004016109df9061183f565b60405180910390fd5b600060028111156109fc576109fb611295565b5b8260060160009054906101000a900460ff166002811115610a2057610a1f611295565b5b14610a60576040517f08c379a0000000000000000000000000000000000000000000000000000000008152600401610a5790611917565b60405180910390fd5b60018260060160006101000a81548160ff02191690836002811115610a8857610a87611295565b5b021790555060018160060160006101000a81548160ff02191690836002811115610ab557610ab4611295565b5b02179055508373ffffffffffffffffffffffffffffffffffffffff168573ffffffffffffffffffffffffffffffffffffffff167faafab9f94340179ff9cefd29621e1772a4b8efab8023163838f1b0a8f6ce5df58460020154604051610b1b9190611704565b60405180910390a35050505050565b610b3261118a565b6000808473ffffffffffffffffffffffffffffffffffffffff1673ffffffffffffffffffffffffffffffffffffffff1681526020019081526020016000208281548110610b8257610b816117b3565b5b9060005260206000209060070201604051806101000160405290816000820160009054906101000a900473ffffffffffffffffffffffffffffffffffffffff1673ffffffffffffffffffffffffffffffffffffffff1673ffffffffffffffffffffffffffffffffffffffff1681526020016001820160009054906101000a900473ffffffffffffffffffffffffffffffffffffffff1673ffffffffffffffffffffffffffffffffffffffff1673ffffffffffffffffffffffffffffffffffffffff168152602001600282015481526020016003820154815260200160048201548152602001600582015481526020016006820160009054906101000a900460ff166002811115610c9557610c94611295565b5b6002811115610ca757610ca6611295565b5b81526020016006820160019054906101000a900460ff161515151581525050905092915050565b60015481565b60008060008373ffffffffffffffffffffffffffffffffffffffff1673ffffffffffffffffffffffffffffffffffffffff168152602001908152602001600020805490509050919050565b803414610d61576040517f08c379a0000000000000000000000000000000000000000000000000000000008152600401610d5890611983565b60405180910390fd5b60006040518061010001604052803373ffffffffffffffffffffffffffffffffffffffff1681526020018673ffffffffffffffffffffffffffffffffffffffff1681526020018581526020016000815260200184815260200183815260200160006002811115610dd457610dd3611295565b5b81526020016000151581525090506000803373ffffffffffffffffffffffffffffffffffffffff1673ffffffffffffffffffffffffffffffffffffffff16815260200190815260200160002081908060018154018082558091505060019003906000526020600020906007020160009091909190915060008201518160000160006101000a81548173ffffffffffffffffffffffffffffffffffffffff021916908373ffffffffffffffffffffffffffffffffffffffff16021790555060208201518160010160006101000a81548173ffffffffffffffffffffffffffffffffffffffff021916908373ffffffffffffffffffffffffffffffffffffffff16021790555060408201518160020155606082015181600301556080820151816004015560a0820151816005015560c08201518160060160006101000a81548160ff02191690836002811115610f2b57610f2a611295565b5b021790555060e08201518160060160016101000a81548160ff021916908315150217905550505060016000815480929190610f65906119d2565b919050555060026040518061010001604052803373ffffffffffffffffffffffffffffffffffffffff1681526020018773ffffffffffffffffffffffffffffffffffffffff1681526020018681526020016000815260200185815260200184815260200160006002811115610fdd57610fdc611295565b5b815260200160001515815250908060018154018082558091505060019003906000526020600020906007020160009091909190915060008201518160000160006101000a81548173ffffffffffffffffffffffffffffffffffffffff021916908373ffffffffffffffffffffffffffffffffffffffff16021790555060208201518160010160006101000a81548173ffffffffffffffffffffffffffffffffffffffff021916908373ffffffffffffffffffffffffffffffffffffffff16021790555060408201518160020155606082015181600301556080820151816004015560a0820151816005015560c08201518160060160006101000a81548160ff021916908360028111156110f3576110f2611295565b5b021790555060e08201518160060160016101000a81548160ff02191690831515021790555050508473ffffffffffffffffffffffffffffffffffffffff163373ffffffffffffffffffffffffffffffffffffffff167f5001b34ecf2db5b7bbeddcbbe761ec9ecadcc7638018b98ce3e24995b0e946b686868660405161117b93929190611a1a565b60405180910390a35050505050565b604051806101000160405280600073ffffffffffffffffffffffffffffffffffffffff168152602001600073ffffffffffffffffffffffffffffffffffffffff1681526020016000815260200160008152602001600081526020016000815260200160006002811115611200576111ff611295565b5b81526020016000151581525090565b600081519050919050565b600082825260208201905092915050565b6000819050602082019050919050565b600073ffffffffffffffffffffffffffffffffffffffff82169050919050565b60006112668261123b565b9050919050565b6112768161125b565b82525050565b6000819050919050565b61128f8161127c565b82525050565b7f4e487b7100000000000000000000000000000000000000000000000000000000600052602160045260246000fd5b600381106112d5576112d4611295565b5b50565b60008190506112e6826112c4565b919050565b60006112f6826112d8565b9050919050565b611306816112eb565b82525050565b60008115159050919050565b6113218161130c565b82525050565b6101008201600082015161133e600085018261126d565b506020820151611351602085018261126d565b5060408201516113646040850182611286565b5060608201516113776060850182611286565b50608082015161138a6080850182611286565b5060a082015161139d60a0850182611286565b5060c08201516113b060c08501826112fd565b5060e08201516113c360e0850182611318565b50505050565b60006113d58383611327565b6101008301905092915050565b6000602082019050919050565b60006113fa8261120f565b611404818561121a565b935061140f8361122b565b8060005b8381101561144057815161142788826113c9565b9750611432836113e2565b925050600181019050611413565b5085935050505092915050565b6000602082019050818103600083015261146781846113ef565b905092915050565b600080fd5b61147d8161125b565b811461148857600080fd5b50565b60008135905061149a81611474565b92915050565b6114a98161127c565b81146114b457600080fd5b50565b6000813590506114c6816114a0565b92915050565b6000806000606084860312156114e5576114e461146f565b5b60006114f38682870161148b565b93505060206115048682870161148b565b9250506040611515868287016114b7565b9150509250925092565b600080604083850312156115365761153561146f565b5b60006115448582860161148b565b9250506020611555858286016114b7565b9150509250929050565b6115688161125b565b82525050565b6115778161127c565b82525050565b611586816112eb565b82525050565b6115958161130c565b82525050565b6000610100820190506115b1600083018b61155f565b6115be602083018a61155f565b6115cb604083018961156e565b6115d8606083018861156e565b6115e5608083018761156e565b6115f260a083018661156e565b6115ff60c083018561157d565b61160c60e083018461158c565b9998505050505050505050565b60006020828403121561162f5761162e61146f565b5b600061163d848285016114b7565b91505092915050565b6101008201600082015161165d600085018261126d565b506020820151611670602085018261126d565b5060408201516116836040850182611286565b5060608201516116966060850182611286565b5060808201516116a96080850182611286565b5060a08201516116bc60a0850182611286565b5060c08201516116cf60c08501826112fd565b5060e08201516116e260e0850182611318565b50505050565b6000610100820190506116fe6000830184611646565b92915050565b6000602082019050611719600083018461156e565b92915050565b6000602082840312156117355761173461146f565b5b60006117438482850161148b565b91505092915050565b600080600080608085870312156117665761176561146f565b5b60006117748782880161148b565b9450506020611785878288016114b7565b9350506040611796878288016114b7565b92505060606117a7878288016114b7565b91505092959194509250565b7f4e487b7100000000000000000000000000000000000000000000000000000000600052603260045260246000fd5b600082825260208201905092915050565b7f496e76616c696420726563656976657200000000000000000000000000000000600082015250565b60006118296010836117e2565b9150611834826117f3565b602082019050919050565b600060208201905081810360008301526118588161181c565b9050919050565b7f536869706d656e74206e6f7420696e207472616e736974000000000000000000600082015250565b60006118956017836117e2565b91506118a08261185f565b602082019050919050565b600060208201905081810360008301526118c481611888565b9050919050565b7f536869706d656e7420616c726561647920737461727465640000000000000000600082015250565b60006119016018836117e2565b915061190c826118cb565b602082019050919050565b60006020820190508181036000830152611930816118f4565b9050919050565b7f5061796d656e7420616d6f756e74206d69736d61746368000000000000000000600082015250565b600061196d6017836117e2565b915061197882611937565b602082019050919050565b6000602082019050818103600083015261199c81611960565b9050919050565b7f4e487b7100000000000000000000000000000000000000000000000000000000600052601160045260246000fd5b60006119dd8261127c565b91507fffffffffffffffffffffffffffffffffffffffffffffffffffffffffffffffff8203611a0f57611a0e6119a3565b5b600182019050919050565b6000606082019050611a2f600083018661156e565b611a3c602083018561156e565b611a49604083018461156e565b94935050505056fea264697066735822122054ad58d1d0978f4b15308ea5fd6a7c1674a31642044850a1e122545e41cf27ff64736f6c634300081c0033",
  "linkReferences": {},
  "deployedLinkReferences": {}
}